{"abi":[{"type":"constructor","inputs":[],"stateMutability":"nonpayable"},{"type":"fallback","stateMutability":"payable"},{"type":"receive","stateMutability":"payable"},{"type":"function","name":"OWNER","inputs":[],"outputs":[{"name":"","type":"address","internalType":"address"}],"stateMutability":"view"},{"type":"function","name":"getBalance","inputs":[],"outputs":[{"name":"","type":"uint256","internalType":"uint256"}],"stateMutability":"view"},{"type":"function","name":"withdraw","inputs":[{"name":"amount","type":"uint256","internalType":"uint256"}],"outputs":[],"stateMutability":"nonpayable"},{"type":"event","name":"Deposit","inputs":[{"name":"sender","type":"address","indexed":true,"internalType":"address"},{"name":"amount","type":"uint256","indexed":false,"internalType":"uint256"}],"anonymous":false},{"type":"event","name":"UnauthorizedWithdrawAttempt","inputs":[{"name":"caller","type":"address","indexed":true,"internalType":"address"},{"name":"amount","type":"uint256","indexed":false,"internalType":"uint256"}],"anonymous":false},{"type":"event","name":"Withdraw","inputs":[{"name":"to","type":"address","indexed":true,"internalType":"address"},{"name":"amount","type":"uint256","indexed":false,"internalType":"uint256"}],"anonymous":false},{"type":"error","name":"InsufficientBalance","inputs":[{"name":"requested","type":"uint256","internalType":"uint256"},{"name":"available","type":"uint256","internalType":"uint256"}]}],"bytecode":{"object":"0x60a060405234801561001057600080fd5b503360805260805161036b6100446000396000818160b901528181610140015281816102020152610267015261036b6000f3fe6080604052600436106100385760003560e01c8063117803e3146100a757806312065fe0146100f85780632e1a7d4d1461011357610075565b366100755760405134815233907fe1fffcc4923d04b559f4d29a8bfc6cda04eb5b0d3c460751c2402c5c5cc9109c906020015b60405180910390a2005b60405134815233907fe1fffcc4923d04b559f4d29a8bfc6cda04eb5b0d3c460751c2402c5c5cc9109c9060200161006b565b3480156100b357600080fd5b506100db7f000000000000000000000000000000000000000000000000000000000000000081565b6040516001600160a01b0390911681526020015b60405180910390f35b34801561010457600080fd5b506040514781526020016100ef565b34801561011f57600080fd5b5061013361012e36600461031c565b610135565b005b336001600160a01b037f000000000000000000000000000000000000000000000000000000000000000016146101d65760405181815233907f3a34d2064ea0ee9e3eabf1ebd945c79e3b88a3831f5878ae0fc6d57a9c1ba5679060200160405180910390a260405162461bcd60e51b815260206004820152600c60248201526b155b985d5d1a1bdc9a5e995960a21b60448201526064015b60405180910390fd5b478111156102005760405163cf47918160e01b8152600481018290524760248201526044016101cd565b7f00000000000000000000000000000000000000000000000000000000000000006001600160a01b03167f884edad9ce6fa2440d8a54cc123490eb96d2768479d49ff9c7366125a94243648260405161025b91815260200190565b60405180910390a260007f00000000000000000000000000000000000000000000000000000000000000006001600160a01b03168260405160006040518083038185875af1925050503d80600081146102d0576040519150601f19603f3d011682016040523d82523d6000602084013e6102d5565b606091505b50509050806103185760405162461bcd60e51b815260206004820152600f60248201526e151c985b9cd9995c8819985a5b1959608a1b60448201526064016101cd565b5050565b60006020828403121561032e57600080fd5b503591905056fea26469706673582212208930dc4167611922ca1b27d8ea6f8ec3f29df3340de3cd01dc699117c15ae26f64736f6c63430008140033","linkReferences":{}},"methodIdentifiers":{"OWNER()":"117803e3","getBalance()":"12065fe0","withdraw(uint256)":"2e1a7d4d"},"id":19}